:100000000C942A000C948B000C9447000C9447002D
:100010000C9447000C9447000C9447000C94470044
:100020000C9447000C9449000C9447000C94470032
:100030000C9447000C9447000C9447000C94470024
:100040000C9447000C9447000C9447000C94470014
:100050000C94470011241FBECFE5D8E0DEBFCDBF12
:1000600010E0A0E6B0E0EAECF1E002C005900D92ED
:10007000AA36B107D9F720E0AAE6B0E001C01D9288
:10008000AE36B207E1F70E94A5000C94E3000C9491
:1000900000001F920F920FB60F9211242F933F93DF
:1000A0005F936F937F938F939F93AF93BF93EF93E0
:1000B000FF9380916800909169009DBD8CBDE09197
:1000C0006C00F0916D00EE0FFF1FE05AFF4F808132
:1000D0008BBB20916C0030916D0080916A009091F3
:1000E0006B00820F931F64E070E00E94BB0090934E
:1000F0006D0080936C00FF91EF91BF91AF919F9144
:100100008F917F916F915F913F912F910F900FBED3
:100110000F901F9018951F920F920FB60F921124F7
:100120002F938F939F9380916A0090916B0021E0B1
:10013000822790936B0080936A009F918F912F91FB
:100140000F900FBE0F901F9018958FE08ABB8EB551
:1001500082608EBD89B7846089BF8BB780648BBF96
:1001600085B7826085BF789480916800909169001E
:100170009DBD8CBDFFCF97FB072E16F4009407D0D2
:1001800077FD09D00E94CF0007FC05D03EF4909582
:1001900081959F4F0895709561957F4F0895AA1B93
:1001A000BB1B51E107C0AA1FBB1FA617B70710F062
:1001B000A61BB70B881F991F5A95A9F78095909594
:0A01C000BC01CD010895F894FFCFB3
:0A01CA000900050006000A00579E18
:00000001FF
