:100000000C942A000C9447000C9447000C94470071
:100010000C9447000C9447000C9447000C94470044
:100020000C9447000C9447000C9447000C94470034
:100030000C9447000C9447000C9447000C94470024
:100040000C9447000C9447000C9447000C94470014
:100050000C94470011241FBECFE5D8E0DEBFCDBF12
:1000600010E0A0E6B0E0E4E8FBE002C005900D92ED
:10007000AA37B107D9F720E0AAE7B0E001C01D9286
:10008000A239B207E1F70E9487000C94C0050C94D6
:10009000000082BBAD98AE98AF9A0000AF988DEE8D
:1000A00092E00197F1F700C0000008958FEF84BB44
:1000B00081BB87E893E10197F1F700C0000088E376
:1000C0000E9449008CE00E94490086E00E9449009D
:1000D00081E00E94490080E80C94490082BBAD9AFF
:1000E000AE98AF9A0000AF9889EF90E00197F1F7D2
:1000F00000C000000895CF93DF93EC01899188231D
:1001000019F00E946E00FACFDF91CF9108950E94FE
:10011000560080E487B987E886B980E6A82E80E09B
:10012000B82ECAE7D0E09FE6892E90E0992E369A45
:10013000349BFECF04B115B1B80180E090E00E947D
:10014000DB012B013C0160938E0070938F00809344
:1001500090009093910020E030E048E151E40E944B
:10016000690220E030E040E052E40E9439016B0176
:100170007C0160938A0070938B0080938C00909335
:100180008D0081E00E944900B801110F880B990B86
:100190000E94DD019B01AC01C301B2010E94380144
:1001A00020E030E040E251E40E9469020E94A50193
:1001B0007F936F9360918E0070918F00809190007B
:1001C000909191000E94A5017F936F93BF92AF928F
:1001D000DF93CF930E94D60280E80E9449008AE70D
:1001E00090E00E947B0080EC0E944900C701B601AC
:1001F0000E94A501072E000C880B990B0E94DD01BF
:100200009B01AC01C701B6010E94380120E030E03B
:1002100040E251E40E9469020E94A5017F936F931E
:1002200060918A0070918B0080918C0090918D007C
:100230000E94A5017F936F939F928F92DF93CF933C
:100240000E94D6028AE790E00E947B008FE996E840
:1002500021E0815090402040E1F700C000008DB7C0
:100260009EB740960FB6F8949EBF0FBE8DBF5FCF6E
:100270005058BB27AA270E9450010C942F020E94BD
:10028000210238F00E94280220F039F49F3F19F42F
:1002900026F40C941E020EF4E095E7FB0C94180271
:1002A000E92F0E94400258F3BA17620773078407C8
:1002B000950720F079F4A6F50C9462020EF4E0950F
:1002C0000B2EBA2FA02D0B01B90190010C01CA0110
:1002D000A0011124FF27591B99F0593F50F4503EBB
:1002E00068F11A16F040A22F232F342F4427585FAD
:1002F000F3CF469537952795A795F0405395C9F7C5
:100300007EF41F16BA0B620B730B840BBAF091507C
:10031000A1F0FF0FBB1F661F771F881FC2F70EC01B
:10032000BA0F621F731F841F48F4879577956795EE
:10033000B795F7959E3F08F0B0CF9395880F08F0DA
:100340009927EE0F9795879508950E94AC016894C0
:10035000B1110C94630208950E94480288F09F57DF
:1003600098F0B92F9927B751B0F0E1F0660F771FD9
:10037000881F991F1AF0BA95C9F714C0B13091F0CF
:100380000E946202B1E008950C946202672F782FF8
:100390008827B85F39F0B93FCCF386957795679594
:1003A000B395D9F73EF490958095709561957F4F00
:1003B0008F4F9F4F0895E89409C097FB3EF49095A6
:1003C0008095709561957F4F8F4F9F4F9923A9F02E
:1003D000F92F96E9BB279395F695879577956795BD
:1003E000B795F111F8CFFAF4BB0F11F460FF1BC001
:1003F0006F5F7F4F8F4F9F4F16C0882311F096E994
:1004000011C0772321F09EE8872F762F05C0662341
:1004100071F096E8862F70E060E02AF09A95660FFA
:10042000771F881FDAF7880F9695879597F90895B3
:1004300097F99F6780E870E060E008959FEF80EC97
:10044000089500240A94161617061806090608953A
:1004500000240A9412161306140605060895092EA0
:100460000394000C11F4882352F0BB0F40F4BF2B0F
:1004700011F460FF04C06F5F7F4F8F4F9F4F08954F
:1004800057FD9058440F551F59F05F3F71F0479545
:10049000880F97FB991F61F09F3F79F0879508952A
:1004A000121613061406551FF2CF4695F1DF08C049
:1004B000161617061806991FF1CF86957105610566
:1004C00008940895E894BB2766277727CB0197F90E
:1004D00008950E947C020C942F020E94210238F0A1
:1004E0000E94280220F0952311F00C9418020C941D
:1004F0001E0211240C9463020E94400270F3959F27
:10050000C1F3950F50E0551F629FF001729FBB270A
:10051000F00DB11D639FAA27F00DB11DAA1F649FA6
:100520006627B00DA11D661F829F2227B00DA11D59
:10053000621F739FB00DA11D621F839FA00D611DDF
:10054000221F749F3327A00D611D231F849F600D00
:10055000211D822F762F6A2F11249F5750409AF029
:10056000F1F088234AF0EE0FFF1FBB1F661F771FB5
:10057000881F91505040A9F79E3F510580F00C9480
:1005800018020C9463025F3FE4F3983ED4F386951F
:1005900077956795B795F795E7959F5FC1F7FE2B20
:1005A000880F911D9695879597F90895AEE0B0E074
:1005B000ECEDF2E00C9497050D891E8986E08C83A2
:1005C0001A8309838FEF9FE79E838D83AE01475E79
:1005D0005F4F6F89788DCE0101960E94F802EF81FE
:1005E000F885E00FF11F10822E96E4E00C94B3051D
:1005F000ABE0B0E0EEEFF2E00C9489056C017B011A
:100600008A01FC0117821682838181FFCCC1CE0151
:1006100001963C01F6019381F70193FD859193FFCB
:1006200081917F01882309F4BAC1853239F493FDA1
:10063000859193FF81917F01853229F4B60190E085
:100640000E94EF04E7CF912C212C312CFFE1F31510
:10065000D8F08B3279F038F4803279F08332A1F41B
:10066000232D20611DC08D3261F0803369F4232D6C
:10067000216016C0832D8260382EE32DE4603E2E6B
:100680002AC0F32DF8601DC037FC2DC020ED280FC7
:100690002A3040F08E32B9F436FC81C1232D20641B
:1006A000322E19C036FE06C08AE0989E200D112415
:1006B000922E11C0EAE02E9E200D1124222EF32D41
:1006C000F0623F2E08C08C3621F4832D8068382ECE
:1006D00002C0883641F4F70193FD859193FF819123
:1006E0007F018111B3CF982F9F7D9554933028F4CB
:1006F0000C5F1F4F9FE399830DC0833631F0833722
:1007000071F0833509F059C021C0F80180818983D7
:100710000E5F1F4F88248394912C530113C028012E
:10072000F2E04F0E511CF801A080B18036FE03C0EC
:10073000692D70E002C06FEF7FEFC5010E94E404F5
:100740004C018201F32DFF773F2E16C0280122E0D5
:10075000420E511CF801A080B18036FE03C0692D05
:1007600070E002C06FEF7FEFC5010E94D9044C0119
:10077000F32DF0683F2E820133FC1BC0822D90E0E8
:1007800088169906B0F4B60180E290E00E94EF046A
:100790002A94F4CFF50137FC859137FE81915F01F2
:1007A000B60190E00E94EF0421102A9421E0821A01
:1007B00091088114910471F7E8C0843611F08936EC
:1007C00041F5F80137FE07C0608171818281938114
:1007D0000C5F1F4F08C060817181072E000C880BD1
:1007E000990B0E5F1F4FF32DFF763F2E97FF09C029
:1007F00090958095709561957F4F8F4F9F4FF068D2
:100800003F2E2AE030E0A3010E942B05882E861897
:1008100045C0853731F4232D2F7EB22E2AE030E0FB
:1008200025C0932D997FB92E8F36C1F018F48835E5
:1008300079F0B5C0803719F0883721F0B0C0E92FC2
:10084000E061BE2EB4FE0DC0FB2DF460BF2E09C0CA
:1008500034FE0AC0292F2660B22E06C028E030E000
:1008600005C020E130E002C020E132E0F801B7FE2F
:1008700007C060817181828193810C5F1F4F06C028
:100880006081718180E090E00E5F1F4FA3010E94A4
:100890002B05882E8618FB2DFF773F2E36FE0DC0C8
:1008A000232D2E7FA22E891458F434FE0BC032FC67
:1008B00009C0832D8E7EA82E05C0B82CA32C03C0A2
:1008C000B82C01C0B92CA4FE0FC0FE01E80DF11D2B
:1008D0008081803321F49A2D997EA92E09C0A2FE31
:1008E00006C0B394B39404C08A2D867809F0B394FB
:1008F000A3FC11C0A0FE06C0B21488F4280C922CF0
:100900009B180EC0B21460F4B60180E290E00E9421
:10091000EF04B394F7CFB21418F42B1802C0982C3C
:10092000212CA4FE10C0B60180E390E00E94EF04E9
:10093000A2FE17C0A1FC03C088E790E002C088E5D2
:1009400090E0B6010CC08A2D867859F0A1FE02C055
:100950008BE201C080E2A7FC8DE2B60190E00E942C
:10096000EF04891438F4B60180E390E00E94EF04AC
:100970009A94F7CF8A94F301E80DF11D8081B601B6
:1009800090E00E94EF048110F5CF222009F442CEBE
:10099000B60180E290E00E94EF042A94F6CFF601BF
:1009A0008681978102C08FEF9FEF2B96E2E10C9436
:1009B000A505FC010590615070400110D8F78095A5
:1009C00090958E0F9F1F0895FC016150704001901B
:1009D0000110D8F7809590958E0F9F1F08950F9363
:1009E0001F93CF93DF93FB01238121FD03C08FEF82
:1009F0009FEF2CC022FF16C046815781248135818C
:100A00004217530744F4A081B1819D012F5F3F4FEE
:100A1000318320838C93268137812F5F3F4F37832B
:100A2000268314C08B01EC01FB010084F185E02DCD
:100A30000995892BE1F6D80116968D919C9117970F
:100A4000019617969C938E931697CE01DF91CF91C6
:100A50001F910F910895FA01AA27283051F12031F2
:100A600081F1E8946F936E7F6E5F7F4F8F4F9F4F42
:100A7000AF4FB1E03ED0B4E03CD0670F781F891F84
:100A80009A1FA11D680F791F8A1F911DA11D6A0F52
:100A9000711D811D911DA11D20D009F468943F9105
:100AA0002AE0269F11243019305D3193DEF6CF0104
:100AB0000895462F4770405D4193B3E00FD0C9F7CA
:100AC000F6CF462F4F70405D4A3318F0495D31FD37
:100AD0004052419302D0A9F7EACFB4E0A69597958A
:100AE000879577956795BA95C9F700976105710560
:100AF00008959B01AC010A2E0694579547953795AA
:100B00002795BA95C9F7620F731F841F951FA01D03
:100B100008952F923F924F925F926F927F928F92A1
:100B20009F92AF92BF92CF92DF92EF92FF920F937C
:100B30001F93CF93DF93CDB7DEB7CA1BDB0B0FB686
:100B4000F894DEBF0FBECDBF09942A883988488843
:100B50005F846E847D848C849B84AA84B984C884D9
:100B6000DF80EE80FD800C811B81AA81B981CE0FD0
:100B7000D11D0FB6F894DEBF0FBECDBFED010895B5
:040B8000F894FFCF17
:100B840054656D703A25642E253031642043002568
:0A0B9400642E253031642046000075
:00000001FF
