:100000000C942A000C94FC000C9447000C944700BC
:100010000C9447000C9447000C9447000C94470044
:100020000C9447000C9449000C9447000C94470032
:100030000C9447000C9447000C9447000C94470024
:100040000C9447000C9447000C9447000C94470014
:100050000C94470011241FBECFE5D8E0DEBFCDBF12
:1000600010E0A0E6B0E0ECEAF2E002C005900D92EC
:10007000A237B107D9F720E0A2E7B0E001C01D9296
:10008000AA37B207E1F70E9416010C9454010C94B0
:1000900000001F920F920FB60F9211240F931F931F
:1000A0002F933F934F935F936F937F938F939F9380
:1000B000AF93BF93EF93FF93809172009091730081
:1000C000892B09F486C040916E0050916F006091B9
:1000D0007000709171008091760090917700A091EE
:1000E0007800B0917900840F951FA61FB71F8093E9
:1000F000760090937700A0937800B09379009DBD2F
:100100008CBD00916A0010916B0020916C003091C1
:100110006D0080179107A207B3077CF0709560957A
:10012000509541955F4F6F4F7F4F40936E005093B6
:100130006F00609370007093710040916E00509159
:100140006F00609170007091710084179507A60789
:10015000B70714F570956095509541955F4F6F4FB7
:100160007F4F40936E0050936F00609370007093C8
:100170007100109276001092770010927800109221
:10018000790080916800909169009195819591091D
:100190009093690080936800E0917400F09175007D
:1001A000EE0FFF1FE05AFF4F80818BBB2091740040
:1001B000309175008091680090916900820F931FC3
:1001C000049664E070E00E942C0190937500809387
:1001D0007400FF91EF91BF91AF919F918F917F91AB
:1001E0006F915F914F913F912F911F910F910F90C0
:1001F0000FBE0F901F9018951F920F920FB60F927F
:1002000011242F938F939F9380917200909173008C
:1002100021E0822790937300809372009F918F91C9
:100220002F910F900FBE0F901F9018958FE08ABBF3
:100230008EB582608EBD89B7846089BF8BB78064BC
:100240008BBF85B7826085BF78948091760090914E
:1002500077009DBD8CBDFFCF97FB072E16F4009451
:1002600007D077FD09D00E94400107FC05D03EF47D
:10027000909581959F4F0895709561957F4F089552
:10028000AA1BBB1B51E107C0AA1FBB1FA617B707BC
:1002900010F0A61BB70B881F991F5A95A9F78095D8
:0C02A0009095BC01CD010895F894FFCFAB
:1002AC000900050006000A00010018F60000D0073E
:0202BC00000040
:00000001FF
