:100000000C942A000C9447000C9447000C94470071
:100010000C9447000C9447000C9447000C94470044
:100020000C9447000C94CA050C9447000C944700AC
:100030000C9447000C9403060C9447000C94470062
:100040000C9447000C9447000C9447000C94470014
:100050000C94470011241FBECFE5D8E0DEBFCDBF12
:1000600012E0A0E6B0E0E8E4F7E102C005900D92EE
:10007000AE3EB107D9F722E0AEEEB2E001C01D926C
:10008000A13FB207E1F70E9417060C94A20B0C9453
:1000900000008BBBC298C198C09A0000C0988DEE3A
:1000A00092E00197F1F700C0000008958FEF87BB41
:1000B0008ABB87E893E10197F1F700C0000088E36D
:1000C0000E9449008CE00E94490086E00E9449009D
:1000D00081E00E94490080E80C9449008BBBC29AE1
:1000E000C198C09A0000C09889EF90E00197F1F79D
:1000F00000C000000895CF93DF93EC01899188231D
:1001000019F00E946E00FACFDF91CF9108951F93EE
:10011000CF93DF93182F0E944900C4E1D0E080E222
:100120000E946E002197D9F7812FDF91CF911F9107
:100130000C944900CF93DF93EB010E944900CE015C
:10014000DF91CF910C947B00CF93DF93EC0181E0A2
:100150000E944900CD2B11F08DE001C08CE0DF91B1
:10016000CF910C944900CF93DF93EC0181E090E0B4
:100170000E94A400CE010E947B002FE986E891E056
:10018000215080409040E1F700C000008EE20E94C4
:100190006E002FE986E891E0215080409040E1F721
:1001A00000C000008EE20E946E002FE986E891E018
:1001B000215080409040E1F700C000008EE20E9494
:1001C0006E002FE38DE093E0215080409040E1F7F6
:1001D00000C00000DF91CF910895FC0120E030E0E5
:1001E0004191442329F02F5F3F4F24313105C1F75E
:1001F000280F391FF90131971082089523B32F700A
:10020000822F90E021F02091EE02222341F021E0A4
:10021000892B09F420E02093EE0284E2089521E086
:100220002093EE0220E030E095958795009719F035
:100230002F5F3F4FF9CF80E385BB43B34F7081E021
:1002400090E011F080E090E0880F991F41E050E0CD
:10025000082E01C0440F0A94EAF74295407F45BB3F
:1002600063B340EF45BB6F7041E050E011F040E0F8
:1002700050E0220F331F220F331F205A3F4F820FAF
:10028000931FFC01E40FF51F80810895EF92FF9208
:100290000F931F93CF93DF931F92CDB7DEB77C01EF
:1002A0008B010E9449000E94FE0089838432D9F3A9
:1002B0008D3339F1833679F4F8019081992359F01F
:1002C000C8010E94ED0080E10E94490080E20E9486
:1002D0006E0080E1E6CF2091EF023091F002232BF7
:1002E00029F4F4EDEF16F10409F48AE20E946E009D
:1002F00041E050E0BE016F5F7F4FC8010E94A0083F
:10030000D2CF0F90DF91CF911F910F91FF90EF907F
:100310000895CF92DF92EF92FF920F931F93CF93A6
:10032000DF93CDB7DEB7A8970FB6F894DEBF0FBE48
:10033000CDBF81E090E00E94A40082ED90E00E9499
:100340007B001E8A1D8A12E1FE017796DF01812F54
:100350001D928A95E9F7BE016B5E7F4F80EC90E0BD
:100360000E94460161EE70E084E990E00E949A00EC
:100370001A821982FE013396DF011D921A95E9F760
:10038000BE016F5F7F4F84ED90E00E944601C090F8
:10039000D000D090D10000E710E0E12CF12CEC145B
:1003A000FD0424F5BE016B5E7F4FC8010E949008DA
:1003B000892BB1F4BE016F5F7F4FC80144960E9444
:1003C0009008892B69F480E482BBF092CF00E09220
:1003D000CE0081E090E09093F0028093EF020CC099
:1003E000BFEFEB1AFB0A085D1F4FD9CF80E882BB35
:1003F00086EF90E00E94B300A8960FB6F894DEBF97
:100400000FBECDBFDF91CF911F910F91FF90EF9065
:10041000DF90CF9008950F931F93CF93DF93CDB7C5
:10042000DEB7EC970FB6F894DEBF0FBECDBF80E00D
:1004300090E00E94A4008091C6009091C7000196B0
:100440009F938F938091C8009091C90001969F93CC
:100450008F938091CB008F938091CA008F938BE113
:1004600091E09F938F938E01075D1F4F1F930F9312
:100470000E94B808C8010E947B008091C1008F9340
:100480008091C0008F938091C3008F938091C200B0
:100490008F938091C5008F938091C4008F938AE2DF
:1004A00091E09F938F93045111091F930F930E9422
:1004B000B808B80180EC90E00E949A008091CD00CD
:1004C0008F938091CC008F9389E391E09F938F93DA
:1004D000045111091F930F930E94B808B80184E9D1
:1004E00090E00E949A006AE471E084ED90E00E943E
:1004F0009A000FB6F894DEBF0FBECDBFEC960FB6D4
:10050000F894DEBF0FBECDBFDF91CF911F910F9149
:1005100008950E940B020E94FE008A32E1F782E0F9
:1005200090E09093F0028093EF02089580E090E0D5
:100530000E94A4008EE591E00E947B006EE671E0CF
:1005400080EC90E00E949A008091CE009091CF00C4
:10055000892B61F467E771E084E990E00E949A00DA
:1005600065E871E084ED90E00E949A000E94FE0030
:10057000813319F485E090E021C0823361F4109258
:10058000F0021092EF028FEF9FEF9093CF008093D5
:10059000CE0012BA08959DEC980F923058F4209135
:1005A000CE003091CF00232B09F7082E000C990BB9
:1005B000C09704C08336D1F681E090E09093F002BA
:1005C0008093EF020895CF93DF93CDB7DEB76497A2
:1005D0000FB6F894DEBF0FBECDBF81E090E00E9461
:1005E000A40087E991E00E947B006BEA71E080EC57
:1005F00090E00E949A001A821982FE01339682E1ED
:10060000DF011D928A95E9F7BE016F5F7F4F84E994
:1006100090E00E944601CE0101960E9472088CB9BA
:100620008BEB91E00E94B30081E090E09093F002A8
:100630008093EF0264960FB6F894DEBF0FBECDBF75
:10064000DF91CF9108951F93CF93DF93CDB7DEB79E
:10065000C456D1090FB6F894DEBF0FBECDBF81E0FE
:1006600090E00E94A40085ED91E00E947B00FE01D5
:10067000EF5AFF4F1192119212E1DF01812F1D926B
:100680008A95E9F7BE016F5A7F4F80EC90E00E9497
:100690004601CE018F5A9F4F0E9472089093CB0063
:1006A0008093CA001EAE1DAEFE01FF96DF01812FB2
:1006B0001D928A95E9F7BE01635C7F4F84E990E063
:1006C0000E944601CE01CD960E9472080197909338
:1006D000C9008093C8001AA619A6FE01BB96DF01C7
:1006E000812F1D928A95E9F7BE01675D7F4F84EDEA
:1006F00090E00E944601CE0189960E9472080197FF
:100700009093C7008093C60081E00E9449008AEE62
:1007100091E00E947B001E8A1D8AFE017796DF0110
:10072000812F1D928A95E9F7BE016B5E7F4F80ECA9
:1007300090E00E944601CE0145960E947208909377
:10074000C5008093C4001A821982FE013396DF012E
:100750001D921A95E9F7BE016F5F7F4F84E990E023
:100760000E944601CE0101960E9472089093C30038
:100770008093C2008EEF91E00E94B30081E090E090
:100780009093F0028093EF02CC59DF4F0FB6F894AC
:10079000DEBF0FBECDBFDF91CF911F910895CF92E5
:1007A000DF92EF92FF920F931F93CF93DF93CDB71A
:1007B000DEB7A8970FB6F894DEBF0FBECDBF7C01A1
:1007C00081E090E00E94A4008AE192E00E947B0018
:1007D0001E8A1D8A12E1FE017796DF01212F1D92EC
:1007E0002A95E9F7BE016B5E7F4F80EC90E00E9496
:1007F0004601EF28D9F1E090D000F090D10090E7C9
:10080000C92E90E0D92E00E010E00E151F055CF512
:10081000B601CE0145960E949008A8E2CA0ED11CEE
:10082000892BF1F4B1E0EB1AF108F092D100E092DB
:10083000D00028E2209FC001219F900D11248059F3
:100840009F4F0E151F057CF40F5F1F4F28E2FC0120
:10085000B896DC0101900D922A95E1F78896F1CFC8
:100860000F5F1F4FD2CF8DE292E061C06EE472E065
:1008700084E990E00E949A001A821982FE01339660
:10088000DF011D921A95E9F7BE016F5F7F4F84ED7E
:1008900090E00E9446010091D0001091D10080E7C5
:1008A000C82E80E0D82EE12CF12CE016F106F4F4ED
:1008B000B601CE0145960E949008B8E2CB0ED11C3D
:1008C000892B81F428E22E9DC0012F9D900D1124CB
:1008D000BE016F5F7F4F8C579F4F0E94990883E640
:1008E00092E025C02FEFE21AF20ADFCF02301105A5
:1008F000ACF588E2809F7001819FF00C1124BE014D
:100900006B5E7F4FC70180599F4F0E949908BE01BF
:100910006F5F7F4FC7018C579F4F0E9499080F5FF1
:100920001F4F1093D1000093D0008CE892E00E94FA
:10093000B30081E090E09093F0028093EF02A896DC
:100940000FB6F894DEBF0FBECDBFDF91CF911F91E0
:100950000F91FF90EF90DF90CF9008958DEA92E095
:10096000E6CF80E090E00E94A40080ED92E00E943B
:100970007B0060EE72E080EC90E00E949A00809133
:10098000EF029091F002049769F40E94FE009FEC40
:10099000980F9230A0F7082E000C990BC1970E9477
:1009A000CF03EDCF08956F927F928F929F92AF9277
:1009B000BF92CF92DF92EF92FF920F931F93CF934C
:1009C000DF93C091C000D091C100BE010D2E000C7C
:1009D000880B990B0E948E0720E030E040E752E43C
:1009E0000E94E4060E94C9076B017C016091C2006D
:1009F0007091C300072E000C880B990B0E948E0784
:100A0000A70196010E9478060E9456073B01072E17
:100A1000000C880B990B0E948E0720E030E040E725
:100A200052E40E94E4060E94C9076B017C016091B8
:100A3000C4007091C500072E000C880B990B0E9412
:100A40008E07A70196010E9478060E9456078B0127
:100A5000072E000C880B990B0E948E0720E030E0D7
:100A600040EC51E40E94E4060E94C9076B017C013E
:100A70006091C6007091C700072E000C880B990B7F
:100A80000E948E07A70196010E9478060E945607D1
:100A90007B01072E000C880B990B0E948E0720E02B
:100AA00030E040EF51E40E94E4060E94C9074B0188
:100AB0005C016091C8007091C900072E000C880B82
:100AC000990B0E948E07A50194010E9478060E944E
:100AD00056076B01072E000C880B990B0E948E079E
:100AE00020E030E040E451E40E94E4060E94C9079F
:100AF0004B015C016091CA007091CB00072E000C85
:100B0000880B990B0E948E07A50194010E9478061C
:100B10000E9456077093CB006093CA00C6016CE038
:100B200070E00E944F069093C9008093C800C701EF
:100B30006EE170E00E944F069093C7008093C6005C
:100B4000C80168E170E00E944F069093C500809351
:100B5000C4002CE330E0C301B9010E944F0690931A
:100B6000C3008093C200CE01B9010E944F0690934A
:100B7000C1008093C000DF91CF911F910F91FF9032
:100B8000EF90DF90CF90BF90AF909F908F907F902D
:100B90006F9008951F920F920FB60F9211242F930A
:100BA0003F934F935F936F937F938F939F93AF93F5
:100BB000BF93EF93FF9386EF92EC9DBD8CBD809128
:100BC000C0009091C10001969093C1008093C00035
:100BD0000E94D3048091EF029091F002019711F4EA
:100BE0000E940B02FF91EF91BF91AF919F918F9166
:100BF0007F916F915F914F913F912F910F900FBE19
:100C00000F901F9018951F920F920FB60F921124FC
:100C10008F939F938CB190E09093CD008093CC0004
:100C20009F918F910F900FBE0F901F90189588E99C
:100C30008AB987E689B90E94560080EF84BB85BBDC
:100C40008EEF81BB8EB583608EBD89B7846089BF0E
:100C500078948091EF029091F00282309105B1F08A
:100C600044F4009781F081309105B9F70E94890220
:100C7000F0CF8430910581F064F08530910569F7FB
:100C80000E94E302E6CF0E948901E3CF0E94960210
:100C9000E0CF0E942303DDCF0E94B104DACF97FB9F
:100CA000072E16F4009407D077FD09D00E94630642
:100CB00007FC05D03EF4909581959F4F089570955F
:100CC00061957F4F0895AA1BBB1B51E107C0AA1F66
:100CD000BB1FA617B70710F0A61BB70B881F991FDD
:100CE0005A95A9F780959095BC01CD01089550586B
:100CF000BB27AA270E948F060C9420080E94120886
:100D000038F00E94190820F039F49F3F19F426F4B6
:100D10000C940F080EF4E095E7FB0C94E007E92F24
:100D20000E94310858F3BA176207730784079507C2
:100D300020F079F4A6F50C946B080EF4E0950B2ED8
:100D4000BA2FA02D0B01B90190010C01CA01A0011D
:100D50001124FF27591B99F0593F50F4503E68F178
:100D60001A16F040A22F232F342F4427585FF3CFB9
:100D7000469537952795A795F0405395C9F77EF48A
:100D80001F16BA0B620B730B840BBAF09150A1F0D3
:100D9000FF0FBB1F661F771F881FC2F70EC0BA0F59
:100DA000621F731F841F48F4879577956795B795E1
:100DB000F7959E3F08F0B0CF9395880F08F09927DC
:100DC000EE0F9795879508950E94F8060C942008D9
:100DD0000E94190858F00E94120840F029F45F3F61
:100DE00029F00C94E00751110C946C080C940F0836
:100DF0000E94310868F39923B1F3552391F3951BB1
:100E0000550BBB27AA2762177307840738F09F5F2B
:100E10005F4F220F331F441FAA1FA9F335D00E2E98
:100E20003AF0E0E832D091505040E695001CCAF705
:100E30002BD0FE2F29D0660F771F881FBB1F2617C8
:100E400037074807AB07B0E809F0BB0B802DBF019F
:100E5000FF2793585F4F3AF09E3F510578F00C946E
:100E6000E0070C946C085F3FE4F3983ED4F386955A
:100E700077956795B795F7959F5FC9F7880F911D8F
:100E80009695879597F90895E1E0660F771F881F7B
:100E9000BB1F621773078407BA0720F0621B730B2E
:100EA000840BBA0BEE1F88F7E09508950E945D074A
:100EB0006894B1110C946C0808950E94390888F068
:100EC0009F5798F0B92F9927B751B0F0E1F0660F0E
:100ED000771F881F991F1AF0BA95C9F714C0B1304F
:100EE00091F00E946B08B1E008950C946B08672F95
:100EF000782F8827B85F39F0B93FCCF3869577957E
:100F00006795B395D9F73EF4909580957095619566
:100F10007F4F8F4F9F4F0895E89409C097FB3EF491
:100F200090958095709561957F4F8F4F9F4F992336
:100F3000A9F0F92F96E9BB279395F69587957795B4
:100F40006795B795F111F8CFFAF4BB0F11F460FF74
:100F50001BC06F5F7F4F8F4F9F4F16C0882311F0CC
:100F600096E911C0772321F09EE8872F762F05C0E0
:100F7000662371F096E8862F70E060E02AF09A957B
:100F8000660F771F881FDAF7880F9695879597F970
:100F900008950E94530890F09F3748F4911116F07D
:100FA0000C946C0860E070E080E89FEB089526F4F4
:100FB0001B16611D711D811D0C94E6070C94010820
:100FC00097F99F6780E870E060E00895882371F4E6
:100FD000772321F09850872B762F07C0662311F4D2
:100FE00099270DC09051862B70E060E02AF09A9509
:100FF000660F771F881FDAF7880F9695879597F900
:1010000008959F3F31F0915020F48795779567952B
:10101000B795880F911D9695879597F908959FEF3D
:1010200080EC089500240A9416161706180609067F
:10103000089500240A94121613061406050608954E
:10104000092E0394000C11F4882352F0BB0F40F4D6
:10105000BF2B11F460FF04C06F5F7F4F8F4F9F4F16
:10106000089557FD9058440F551F59F05F3F71F098
:101070004795880F97FB991F61F09F3F79F08795FF
:101080000895121613061406551FF2CF4695F1DF88
:1010900008C0161617061806991FF1CF8695710518
:1010A0006105089408950E943908A0F0BEE7B917B9
:1010B00088F4BB279F3860F41616B11D672F782F70
:1010C0008827985FF7CF869577956795B11D93959B
:1010D0009639C8F30895E894BB2766277727CB0194
:1010E00097F90895FC0188279927E89421912032E7
:1010F000E9F3293010F02E30C8F32B3241F02D32B5
:1011000039F4689404C00E94B008820F911D2191A7
:1011100020532A30C0F31EF4909581959F4F089577
:10112000FB01DC018D91019080190110D9F3990B1D
:101130000895FB01DC0101900D920020E1F7089574
:10114000FB01DC010D900020E9F711974150504060
:1011500028F0019000200D92C9F708951C9208957F
:101160007AE0979F902D879F802D910D11240895EF
:10117000AEE0B0E0EEEBF8E00C94790B0D891E893F
:1011800086E08C831A8309838FEF9FE79E838D838C
:10119000AE01475E5F4F6F89788DCE0101960E9448
:1011A000DA08EF81F885E00FF11F10822E96E4E057
:1011B0000C94950BABE0B0E0E0EEF8E00C946B0B18
:1011C0006C017B018A01FC0117821682838181FFF9
:1011D000CCC1CE0101963C01F6019381F70193FD4C
:1011E000859193FF81917F01882309F4BAC18532EB
:1011F00039F493FD859193FF81917F01853229F424
:10120000B60190E00E94D10AE7CF912C212C312C1D
:10121000FFE1F315D8F08B3279F038F4803279F0B1
:101220008332A1F4232D20611DC08D3261F0803303
:1012300069F4232D216016C0832D8260382EE32DA2
:10124000E4603E2E2AC0F32DF8601DC037FC2DC08F
:1012500020ED280F2A3040F08E32B9F436FC81C1DF
:10126000232D2064322E19C036FE06C08AE0989ED7
:10127000200D1124922E11C0EAE02E9E200D112483
:10128000222EF32DF0623F2E08C08C3621F4832DE0
:101290008068382E02C0883641F4F70193FD8591AD
:1012A00093FF81917F018111B3CF982F9F7D95543A
:1012B000933028F40C5F1F4F9FE399830DC0833652
:1012C00031F0833771F0833509F059C021C0F8013E
:1012D000808189830E5F1F4F88248394912C530152
:1012E00013C02801F2E04F0E511CF801A080B1801C
:1012F00036FE03C0692D70E002C06FEF7FEFC501BD
:101300000E94C60A4C018201F32DFF773F2E16C0C2
:10131000280122E0420E511CF801A080B18036FE67
:1013200003C0692D70E002C06FEF7FEFC5010E941E
:10133000BB0A4C01F32DF0683F2E820133FC1BC029
:10134000822D90E088169906B0F4B60180E290E014
:101350000E94D10A2A94F4CFF50137FC859137FE1B
:1013600081915F01B60190E00E94D10A21102A9478
:1013700021E0821A91088114910471F7E8C0843643
:1013800011F0893641F5F80137FE07C0608171819F
:10139000828193810C5F1F4F08C060817181072E8D
:1013A000000C880B990B0E5F1F4FF32DFF763F2E1D
:1013B00097FF09C090958095709561957F4F8F4FED
:1013C0009F4FF0683F2E2AE030E0A3010E940D0BF2
:1013D000882E861845C0853731F4232D2F7EB22EF6
:1013E0002AE030E025C0932D997FB92E8F36C1F0C9
:1013F00018F4883579F0B5C0803719F0883721F0B6
:10140000B0C0E92FE061BE2EB4FE0DC0FB2DF4602C
:10141000BF2E09C034FE0AC0292F2660B22E06C096
:1014200028E030E005C020E130E002C020E132E0F9
:10143000F801B7FE07C060817181828193810C5FE2
:101440001F4F06C06081718180E090E00E5F1F4FEA
:10145000A3010E940D0B882E8618FB2DFF773F2ECF
:1014600036FE0DC0232D2E7FA22E891458F434FE93
:101470000BC032FC09C0832D8E7EA82E05C0B82C6F
:10148000A32C03C0B82C01C0B92CA4FE0FC0FE01D0
:10149000E80DF11D8081803321F49A2D997EA92ECB
:1014A00009C0A2FE06C0B394B39404C08A2D867806
:1014B00009F0B394A3FC11C0A0FE06C0B21488F4D6
:1014C000280C922C9B180EC0B21460F4B60180E276
:1014D00090E00E94D10AB394F7CFB21418F42B18FD
:1014E00002C0982C212CA4FE10C0B60180E390E02D
:1014F0000E94D10AA2FE17C0A1FC03C088E790E0B9
:1015000002C088E590E0B6010CC08A2D867859F0BB
:10151000A1FE02C08BE201C080E2A7FC8DE2B60111
:1015200090E00E94D10A891438F4B60180E390E07B
:101530000E94D10A9A94F7CF8A94F301E80DF11D25
:101540008081B60190E00E94D10A8110F5CF22205F
:1015500009F442CEB60180E290E00E94D10A2A94BA
:10156000F6CFF6018681978102C08FEF9FEF2B9611
:10157000E2E10C94870BFC01059061507040011072
:10158000D8F7809590958E0F9F1F0895FC016150AC
:10159000704001900110D8F7809590958E0F9F1F95
:1015A00008950F931F93CF93DF93FB01238121FDB8
:1015B00003C08FEF9FEF2CC022FF16C046815781DA
:1015C000248135814217530744F4A081B1819D01E4
:1015D0002F5F3F4F318320838C93268137812F5F8C
:1015E0003F4F3783268314C08B01EC01FB0100843D
:1015F000F185E02D0995892BE1F6D80116968D919C
:101600009C911797019617969C938E931697CE01EF
:10161000DF91CF911F910F910895FA01AA272830E9
:1016200051F1203181F1E8946F936E7F6E5F7F4FAF
:101630008F4F9F4FAF4FB1E03ED0B4E03CD0670F2B
:10164000781F891F9A1FA11D680F791F8A1F911D7E
:10165000A11D6A0F711D811D911DA11D20D009F4CE
:1016600068943F912AE0269F11243019305D319310
:10167000DEF6CF010895462F4770405D4193B3E0F9
:101680000FD0C9F7F6CF462F4F70405D4A3318F0A0
:10169000495D31FD4052419302D0A9F7EACFB4E051
:1016A000A6959795879577956795BA95C9F7009709
:1016B0006105710508959B01AC010A2E06945795AA
:1016C000479537952795BA95C9F7620F731F841F01
:1016D000951FA01D08952F923F924F925F926F9297
:1016E0007F928F929F92AF92BF92CF92DF92EF92B2
:1016F000FF920F931F93CF93DF93CDB7DEB7CA1B33
:10170000DB0B0FB6F894DEBF0FBECDBF09942A885D
:10171000398848885F846E847D848C849B84AA8405
:10172000B984C884DF80EE80FD800C811B81AA8192
:10173000B981CE0FD11D0FB6F894DEBF0FBECDBF5D
:08174000ED010895F894FFCFBC
:101748003738392F3435362A3132332D63303D2B33
:101758003100000000000000000000000000000050
:1017680000000000313233000000000000000000DB
:101778000000000000000000000000000000000061
:101788000000000000000000000000000000000051
:101798000000000000000000000000000000000041
:1017A8002D000A00140012000A00E5071900FFFFC7
:1017B8000100456E74657220796F75722049443A4C
:1017C80000456E74657220796F757220706173734D
:1017D800776F72643A0057726F6E67206372656440
:1017E800656E7469616C2C202020506C656173658E
:1017F8002074727920616761696E00446174653A8A
:101808002025642F25642F25640054696D653A20CE
:1018180025643A25643A25640054656D70657261E3
:10182800747572653A20256443005072657373209D
:101838005820666F7220416374696F6E7300312E91
:1018480053746570706572204D6F746F7200322E1C
:101858004C6F676F757400332E4368616E6765203F
:101868004461746500342E55736572204D616E6154
:1018780067656D656E7400456E7465722074686581
:10188800206E756D626572206F66006379636C65A2
:10189800733A2028312D3235352900526F7461741E
:1018A800696E672074686520537465707065724D41
:1018B8006F746F7200456E74657220596561722C81
:1018C8004D6F6E74682C44617900456E74657220A2
:1018D800486F75722026204D696E757465004461E5
:1018E800746520616E6420636C6F636B2020202018
:1018F80020206368616E67656400456E74657220B8
:1019080074686520757365722049443A005573659B
:10191800722072656D6F766564202020202020205B
:10192800207375636365737366756C6C7900456EB7
:1019380074657220557365722050617373776F7286
:10194800643A00557365722063726564656E7469E4
:10195800616C202020202075706461746564207398
:1019680075636365737366756C6C7900557365721E
:10197800206164646564202020202020202020200D
:101988007375636365737366756C6C790041637412
:10199800696F6E206661696C65642E2020202020A6
:1019A800204D656D6F72792069732066756C6C00C7
:1019B800312E4164642F4564697420557365720043
:0E19C800322E52656D6F766520557365720084
:00000001FF
