:100000000C942A000C943C000C943C000C943C0092
:100010000C943C000C943C000C943C000C943C0070
:100020000C943C000C943C000C943C000C943C0060
:100030000C943C000C943C000C943C000C943C0050
:100040000C943C000C943C000C943C000C943C0040
:100050000C943C0011241FBECFE5D4E0DEBFCDBF21
:1000600021E0A0E6B0E001C01D92A832B207E1F79E
:100070000E9474000C94F6000C94000088BBD89881
:10008000D998DA9ADA988FE697E10197F1F700C0EC
:10009000000008958FEF8ABB87BB8FE39CE901972F
:1000A000F1F700C0000088E30E943E008CE00E944F
:1000B0003E0086E00E943E0081E00E943E0080E813
:1000C0000C943E0088BBD89AD998DA9ADA980895A9
:1000D000CF93DF93EC018991882319F00E9462008D
:1000E000FACFDF91CF910895EF92FF920F931F9374
:1000F000CF93DF93CDB7DEB760970FB6F894DEBF2E
:100100000FBECDBF14BA2FEF80E792E021508040A0
:100110009040E1F700C000009899FECFAFECB7E047
:100120001197F1F700C0000000E610E0F80110821E
:1001300080E090E023B3422F417050E09A01082EF6
:1001400001C0220F0A94EAF73081232B2083AFEC01
:10015000B7E01197F1F700C00000019688309105D3
:1001600049F73196B1E0E832FB0709F70E944A00EF
:1001700088E1E82E81E0F82E40E150E0B801CE01A0
:1001800001960E94E70081E00E943E0080E80E9404
:100190003E00CE0101960E9468008FE19EE4019727
:1001A000F1F700C000000F5F1F4FE016F10621F7C6
:1001B00080E090E060960FB6F894DEBF0FBECDBF32
:1001C000DF91CF911F910F91FF90EF900895FB0168
:1001D000DC014150504048F001900D920020C9F7D9
:1001E00001C01D9241505040E0F70895F894FFCFB0
:00000001FF
