:100000000C942A000C9447000C9447000C94470071
:100010000C9447000C9447000C9447000C94470044
:100020000C9447000C9457000C9447000C94470024
:100030000C9447000C9447000C9447000C94470024
:100040000C9447000C9447000C9447000C94470014
:100050000C94470011241FBECFE5D8E0DEBFCDBF12
:1000600010E0A0E6B0E0EAEAF1E002C005900D92EF
:10007000AC36B107D9F720E0ACE6B0E001C01D9284
:10008000AE36B207E1F70E9498000C94D3000C94AE
:1000900000008A30910540F4FC01EE59FF4F808149
:1000A000082E000C990B089580E090E008951F92AF
:1000B0000F920FB60F9211245F936F937F938F93DC
:1000C0009F93AF93BF93EF93FF9380916C009091B8
:1000D0006D006AE070E00E94AB008A30910540F448
:1000E000FC01EE59FF4F8081082E000C990B02C0D5
:1000F00080E090E082BB80916C0090916D00019651
:1001000090936D0080936C008091600090916100ED
:100110009DBD8CBDFF91EF91BF91AF919F918F914C
:100120007F916F915F910F900FBE0F901F90189568
:1001300081E084BB8FE781BB8EB582608EBD8091EC
:100140006000909161009DBD8CBD89B7846089BFBE
:10015000789415BAFFCF97FB072E16F4009407D0BA
:1001600077FD09D00E94BF0007FC05D03EF49095B2
:1001700081959F4F0895709561957F4F0895AA1BB3
:10018000BB1B51E107C0AA1FBB1FA617B70710F082
:10019000A61BB70B881F991F5A95A9F780959095B4
:0A01A000BC01CD010895F894FFCFD3
:0C01AA00DB0B3F065B4F666D7D077F6F2F
:00000001FF
