:100000000C942A000C9447000C9447000C94470071
:100010000C9447000C9447000C9447000C94470044
:100020000C9447000C9447000C9447000C94470034
:100030000C9447000C9449000C9447000C94470022
:100040000C9447000C9447000C9447000C94470014
:100050000C94470011241FBECFE5D8E0DEBFCDBF12
:1000600010E0A0E6B0E0E4EDF1E002C005900D92F2
:10007000AA36B107D9F720E0AAE6B0E001C01D9288
:10008000AC36B207E1F70E949B000C94E8000C9498
:1000900000001F920F920FB60F9211240F931F931F
:1000A0002F933F935F936F937F938F939F93AF9320
:1000B000BF93CF93DF93EF93FF932CB130E004E035
:1000C00010E02115310519F1CCE0D0E0E0916A0093
:1000D000F0916B00EE0FFF1FE05AFF4F808188BB4D
:1000E00080916A0090916B000196B8010E94C00057
:1000F00090936B0080936A0087EA91E60197F1F78D
:1001000000C00000219711F721503109DACFFF918B
:10011000EF91DF91CF91BF91AF919F918F917F919F
:100120006F915F913F912F911F910F910F900FBE93
:100130000F901F90189588E98AB987E689B980E4FD
:1001400087B987E886B978948FEF87BB8EEF81BB3C
:1001500030E420E8369A349BFECF84B195B1909379
:100160006900809368008CB932BB4FE986E891E062
:10017000415080409040E1F700C0000022BBEACF30
:1001800097FB072E16F4009407D077FD09D00E9444
:10019000D40007FC05D03EF4909581959F4F0895BB
:1001A000709561957F4F0895AA1BBB1B51E107C055
:1001B000AA1FBB1FA617B70710F0A61BB70B881FF7
:1001C000991F5A95A9F780959095BC01CD01089586
:0401D000F894FFCFD1
:0A01D4000900050006000A001900EA
:00000001FF
