:100000000C942A000C9447000C9447000C94470071
:100010000C9447000C9447000C9447000C94470044
:100020000C9447000C9457000C9447000C948200E9
:100030000C9447000C9447000C9447000C94470024
:100040000C9447000C9447000C9447000C94470014
:100050000C94470011241FBECFE5D8E0DEBFCDBF12
:1000600010E0A0E6B0E0E4EEF2E002C005900D92F0
:10007000AE36B107D9F720E0AEE6B0E001C01D9280
:10008000A237B207E1F70E942F010C9470010C9483
:1000900000008A30910540F4FC01EC59FF4F80814B
:1000A000082E000C990B089580E090E008951F92AF
:1000B0000F920FB60F9211245F936F937F938F93DC
:1000C0009F93AF93BF9380917000909171000196C0
:1000D00060E177E20E944801909371008093700084
:1000E00080916200909163009DBD8CBDBF91AF91E6
:1000F0009F918F917F916F915F910F900FBE0F90A5
:100100001F9018951F920F920FB60F9211242F93E4
:100110003F935F936F937F938F939F93AF93BF931F
:10012000EF93FF9320916E0030916F0021303105E5
:1001300011F124F42115310549F074C02230310544
:10014000B9F12330310509F450C06CC080917000C2
:10015000909171006AE070E00E9448018A30910538
:1001600038F4FC01EC59FF4F2081022E000C330BB8
:1001700022BB87E056C080917000909171002AE008
:1001800030E0B9010E944801CB01B9010E94480149
:100190008A30910540F4FC01EC59FF4F8081082E14
:1001A000000C990B02C080E090E082BB8BE039C06C
:1001B000809170009091710064E670E00E944801A7
:1001C000CB016AE070E00E9448018A30910540F45A
:1001D000FC01EC59FF4F8081082E000C990B02C0E6
:1001E00080E090E082BB8DE01CC080917000909117
:1001F000710068EE73E00E944801CB016AE070E094
:100200000E9448018A30910540F4FC01EC59FF4FEF
:100210008081082E000C990B02C080E090E082BB28
:100220008EE085BB80916E0090916F00019664E036
:1002300070E00E94480190936F0080936E00FF91E0
:10024000EF91BF91AF919F918F917F916F915F914E
:100250003F912F910F900FBE0F901F9018958FE038
:1002600084BB8FE781BB8EB582608EBD83B7826011
:1002700083BF80916200909163009DBD8CBD809191
:10028000600082BF89B7856089BF789415BAFFCFB7
:1002900097FB072E16F4009407D077FD09D00E9433
:1002A0005C0107FC05D03EF4909581959F4F089521
:1002B000709561957F4F0895AA1BBB1B51E107C044
:1002C000AA1FBB1FA617B70710F0A61BB70B881FE6
:1002D000991F5A95A9F780959095BC01CD01089575
:0402E000F894FFCFC0
:0E02E400FE008EFD3F065B4F666D7D077F6F4F
:00000001FF
