:100000000C942A000C9447000C9447000C94470071
:100010000C9447000C9447000C9447000C94470044
:100020000C9447000C9447000C9447000C94470034
:100030000C9447000C9447000C9447000C94470024
:100040000C9447000C9447000C9447000C94470014
:100050000C94470011241FBECFE5D4E0DEBFCDBF16
:1000600011E0A0E6B0E0E6E6F1E002C005900D92F6
:10007000A832B107D9F721E0A8E2B1E001C01D9292
:10008000A03FB207E1F70E9449000C94B1000C9424
:100090000000CF93DF938FEF87BB88BBE199FECF42
:1000A000C0E6D0E0FE0101900020E9F73197AF01F2
:1000B0004056504060E070E0CE010E949A00FE0180
:1000C00001900020E9F73197AF014056504060E0C1
:1000D00070E088E291E00E948A002FEF80E792E0D2
:1000E000215080409040E1F700C00000E8E2F1E0DC
:1000F000819188BB8FEC97E00197F1F700C0000079
:1001000091E0E03FF907A1F718BA80E090E0DF91B5
:10011000CF910895DC01CB01FC01E199FECF06C02F
:10012000FFBBEEBBE09A31960DB20D9241505040AC
:10013000B8F70895DC01CB0103C02D910E94A50002
:1001400041505040D0F70895262FE199FECF9FBB34
:100150008EBB2DBB0FB6F894E29AE19A0FBE0196C2
:060160000895F894FFCFA2
:10016600546865204575726F7065616E206C616EAE
:1001760067756167657320617265206D656D62657F
:100186007273206F66207468652073616D652066E2
:10019600616D696C792E205468656972207365708B
:1001A6006172617465206578697374656E63652034
:1001B60069732061206D7974682E20466F722073F2
:1001C6006369656E63652C206D757369632C207396
:1001D600706F72742C206574632C204575726F7075
:1001E600652075736573207468652073616D65207D
:1001F600766F636162756C6172792E205468652032
:100206006C616E677561676573206F6E6C792064CB
:10021600696666657220696E207468656972206712
:0802260072616D6D6172000050
:00000001FF
