:100000000C942A000C948C000C9447000C9447002C
:100010000C9447000C9447000C9447000C94470044
:100020000C9447000C9449000C9447000C94470032
:100030000C9447000C9447000C9447000C94470024
:100040000C9447000C9447000C9447000C94470014
:100050000C94470011241FBECFE5D8E0DEBFCDBF12
:1000600010E0A0E6B0E0EAECF1E002C005900D92ED
:10007000AC36B107D9F720E0ACE6B0E001C01D9284
:10008000AE36B207E1F70E94A5000C94E3000C9491
:1000900000001F920F920FB60F9211242F933F93DF
:1000A0005F936F937F938F939F93AF93BF93EF93E0
:1000B000FF9380916A0090916B009DBD8CBDE09193
:1000C0006C00F0916D00EE0FFF1FE05AFF4F808132
:1000D0008BBB20916C0030916D00809168009091F5
:1000E0006900820F931F049664E070E00E94BB00D9
:1000F00090936D0080936C00FF91EF91BF91AF9151
:100100009F918F917F916F915F913F912F910F9070
:100110000FBE0F901F9018951F920F920FB60F925F
:1001200011248F939F93809168009091690091951D
:100130008195910990936900809368009F918F91B8
:100140000F900FBE0F901F9018958FE08ABB8EB551
:1001500082608EBD89B7846089BF8BB780648BBF96
:1001600085B7826085BF789480916A0090916B001A
:100170009DBD8CBDFFCF97FB072E16F4009407D0D2
:1001800077FD09D00E94CF0007FC05D03EF4909582
:1001900081959F4F0895709561957F4F0895AA1B93
:1001A000BB1B51E107C0AA1FBB1FA617B70710F062
:1001B000A61BB70B881F991F5A95A9F78095909594
:0A01C000BC01CD010895F894FFCFB3
:0C01CA000900050006000A000100579E15
:00000001FF
