:100000000C942A000C9447000C9447000C94470071
:100010000C9447000C9447000C9447000C94470044
:100020000C9447000C9455010C9447000C94470025
:100030000C9447000C9447000C9447000C94470024
:100040000C9447000C9447000C9447000C94470014
:100050000C94470011241FBECFE5D8E0DEBFCDBF12
:1000600010E0A0E6B0E0ECE1FFE002C005900D92E8
:10007000AC36B107D9F720E0ACE6B0E001C01D9284
:10008000A039B207E1F70E94FC010C948C070C9494
:10009000000082BBA898A998AA9A0000AA988DEEA1
:1000A00092E00197F1F700C0000008958FEF84BB44
:1000B00081BB87E893E10197F1F700C0000088E376
:1000C0000E9449008CE00E94490086E00E9449009D
:1000D00081E00E94490080E80C94490082BBA89A04
:1000E000A998AA9A0000AA9889EF90E00197F1F7E1
:1000F00000C000000895CF93DF93EC01899188231D
:1001000019F00E946E00FACFDF91CF91089580918F
:1001100080009091810001962CE330E0B9010E94AB
:100120007F02FC018091820090918300860F971FCF
:10013000B9010E947F029C0180918400909185000A
:10014000860F971F68E170E00E947F029093850000
:10015000809384003093830020938200F093810089
:10016000E0938000089581E00E94490080E80E94A9
:100170004900809181008F93809180008F938091BE
:1001800083008F93809182008F93809185008F935D
:10019000809184008F9382E690E09F938F938CE60A
:1001A00090E09F938F930E94A2048DB79EB70A960A
:1001B0000FB6F8949EBF0FBE8DBF8CE690E00C94F6
:1001C0007B008F929F92AF92BF92CF92DF92EF927D
:1001D000FF92CF93DF936091820070918300072E8E
:1001E000000C880B990B0E94BE036B017C0120E080
:1001F00030E040E752E40E9414030E94F9034B01EF
:100200005C016091840070918500072E000C880BC2
:10021000990B0E94BE03A50194010E94A8020E94AE
:100220008603CB01489668E170E00E947F029093BC
:10023000850080938400C0918000D0918100BE0130
:100240000D2E000C880B990B0E94BE0320E030E0BD
:1002500040E752E40E9414030E94F9039B01AC01A1
:10026000C701B6010E94A8020E948603CB01CC966A
:100270002CE330E0B9010E947F02909383008093C9
:100280008200CE01CC96B9010E947F02909381003A
:1002900080938000DF91CF91FF90EF90DF90CF901F
:1002A000BF90AF909F908F9008951F920F920FB6BE
:1002B0000F9211242F933F934F935F936F937F93EC
:1002C0008F939F93AF93BF93EF93FF9380916000C1
:1002D000909161009DBD8CBD80918E0090918F00AA
:1002E000892B49F080918000909181000197909333
:1002F0008100809380000E94E1000E94B300FF9182
:10030000EF91BF91AF919F918F917F916F915F918D
:100310004F913F912F910F900FBE0F901F90189506
:100320006F3F2FEF7207C1F4209180003091810060
:10033000121613060CF447C02091820030918300FE
:10034000121613060CF452C02091840030918500DF
:100350001216130604F108958130910559F4809125
:10036000820090918300680F791F709383006093DF
:1003700082000FC082309105D9F0892B51F4809111
:10038000800090918100680F791F709381006093C5
:1003900080000C94E10081309105F9F082309105E4
:1003A00061F78091840090918500181619061CF55C
:1003B0008091840090918500680F791F709385006B
:1003C00060938400E6CF8130910541F780918200EF
:1003D000909183001816190614F280918400909170
:1003E0008500181619060CF4BACF05C081309105A6
:1003F00009F4B5CFD3CF08951ABA8FEF87BB8EB566
:1004000083608EBD89B7846089BF78940E9456004E
:1004100080916000909161009DBD8CBD8AE090E06C
:100420009093810080938000C1E0D0E003E010E071
:10043000FF24FA94C89B48C080918000909181006D
:100440001816190674F08091820090918300181696
:1004500019063CF0809184009091850018161906C9
:100460009CF5D0938F00C0938E00CE9B0CC08091E2
:100470008600909187000196B8010E947F029093B8
:10048000870080938600CD9B02C0C89B22C0CF9B73
:1004900002C0C89B29C080918000909181001816ED
:1004A000190684F080918200909183001816190635
:1004B0004CF080918400909185001816190614F074
:1004C000F8BAB8CF18BAB6CF10928F0010928E003B
:1004D000CCCF61E070E080918600909187000E940F
:1004E00090010E94B300D3CF6FEF7FEF8091860021
:1004F000909187000E9490010E94B300CCCF97FB9F
:10050000072E16F4009407D077FD09D00E949302BD
:1005100007FC05D03EF4909581959F4F0895709506
:1005200061957F4F0895AA1BBB1B51E107C0AA1F0D
:10053000BB1FA617B70710F0A61BB70B881F991F84
:100540005A95A9F780959095BC01CD010895505812
:10055000BB27AA270E94BF020C9450040E944204A9
:1005600038F00E94490420F039F49F3F19F426F432
:100570000C943F040EF4E095E7FB0C941004E92F73
:100580000E94610458F3BA1762077307840795073E
:1005900020F079F4A6F50C949B040EF4E0950B2E54
:1005A000BA2FA02D0B01B90190010C01CA01A001C5
:1005B0001124FF27591B99F0593F50F4503E68F120
:1005C0001A16F040A22F232F342F4427585FF3CF61
:1005D000469537952795A795F0405395C9F77EF432
:1005E0001F16BA0B620B730B840BBAF09150A1F07B
:1005F000FF0FBB1F661F771F881FC2F70EC0BA0F01
:10060000621F731F841F48F4879577956795B79588
:10061000F7959E3F08F0B0CF9395880F08F0992783
:10062000EE0F9795879508950E9428030C94500427
:100630000E94490458F00E94420440F029F45F3FB0
:1006400029F00C94100451110C949C040C943F0458
:100650000E94610468F39923B1F3552391F3951B2C
:10066000550BBB27AA2762177307840738F09F5FD3
:100670005F4F220F331F441FAA1FA9F335D00E2E40
:100680003AF0E0E832D091505040E695001CCAF7AD
:100690002BD0FE2F29D0660F771F881FBB1F261770
:1006A00037074807AB07B0E809F0BB0B802DBF0147
:1006B000FF2793585F4F3AF09E3F510578F00C9416
:1006C00010040C949C045F3FE4F3983ED4F38695A9
:1006D00077956795B795F7959F5FC9F7880F911D37
:1006E0009695879597F90895E1E0660F771F881F23
:1006F000BB1F621773078407BA0720F0621B730BD6
:10070000840BBA0BEE1F88F7E09508950E948D03C5
:100710006894B1110C949C0408950E94690488F0B7
:100720009F5798F0B92F9927B751B0F0E1F0660FB5
:10073000771F881F991F1AF0BA95C9F714C0B130F6
:1007400091F00E949B04B1E008950C949B04672FE4
:10075000782F8827B85F39F0B93FCCF38695779525
:100760006795B395D9F73EF490958095709561950E
:100770007F4F8F4F9F4F0895E89409C097FB3EF439
:1007800090958095709561957F4F8F4F9F4F9923DE
:10079000A9F0F92F96E9BB279395F695879577955C
:1007A0006795B795F111F8CFFAF4BB0F11F460FF1C
:1007B0001BC06F5F7F4F8F4F9F4F16C0882311F074
:1007C00096E911C0772321F09EE8872F762F05C088
:1007D000662371F096E8862F70E060E02AF09A9523
:1007E000660F771F881FDAF7880F9695879597F918
:1007F00008950E94830490F09F3748F4911116F0F9
:100800000C949C0460E070E080E89FEB089526F46F
:100810001B16611D711D811D0C9416040C9431046E
:1008200097F99F6780E870E060E00895882371F48D
:10083000772321F09850872B762F07C0662311F479
:1008400099270DC09051862B70E060E02AF09A95B0
:10085000660F771F881FDAF7880F9695879597F9A7
:1008600008959F3F31F0915020F4879577956795D3
:10087000B795880F911D9695879597F908959FEFE5
:1008800080EC089500240A94161617061806090627
:10089000089500240A9412161306140605060895F6
:1008A000092E0394000C11F4882352F0BB0F40F47E
:1008B000BF2B11F460FF04C06F5F7F4F8F4F9F4FBE
:1008C000089557FD9058440F551F59F05F3F71F040
:1008D0004795880F97FB991F61F09F3F79F08795A7
:1008E0000895121613061406551FF2CF4695F1DF30
:1008F00008C0161617061806991FF1CF86957105C0
:100900006105089408950E946904A0F0BEE7B91734
:1009100088F4BB279F3860F41616B11D672F782F17
:100920008827985FF7CF869577956795B11D939542
:100930009639C8F30895E894BB2766277727CB013B
:1009400097F90895AEE0B0E0E8EAF4E00C946307AC
:100950000D891E8986E08C831A8309838FEF9FE7B8
:100960009E838D83AE01475E5F4F6F89788DCE0188
:1009700001960E94C404EF81F885E00FF11F1082F8
:100980002E96E4E00C947F07ABE0B0E0EAECF4E0F4
:100990000C9455076C017B018A01FC0117821682B9
:1009A000838181FFCCC1CE0101963C01F601938188
:1009B000F70193FD859193FF81917F01882309F4CD
:1009C000BAC1853239F493FD859193FF81917F01FE
:1009D000853229F4B60190E00E94BB06E7CF912C46
:1009E000212C312CFFE1F315D8F08B3279F038F45B
:1009F000803279F08332A1F4232D20611DC08D3225
:100A000061F0803369F4232D216016C0832D82604C
:100A1000382EE32DE4603E2E2AC0F32DF8601DC071
:100A200037FC2DC020ED280F2A3040F08E32B9F46B
:100A300036FC81C1232D2064322E19C036FE06C03B
:100A40008AE0989E200D1124922E11C0EAE02E9E7D
:100A5000200D1124222EF32DF0623F2E08C08C367B
:100A600021F4832D8068382E02C0883641F4F701C6
:100A700093FD859193FF81917F018111B3CF982FD1
:100A80009F7D9554933028F40C5F1F4F9FE399830B
:100A90000DC0833631F0833771F0833509F059C0CA
:100AA00021C0F801808189830E5F1F4F88248394C1
:100AB000912C530113C02801F2E04F0E511CF80194
:100AC000A080B18036FE03C0692D70E002C06FEFD8
:100AD0007FEFC5010E94B0064C018201F32DFF7724
:100AE0003F2E16C0280122E0420E511CF801A080C2
:100AF000B18036FE03C0692D70E002C06FEF7FEF5A
:100B0000C5010E94A5064C01F32DF0683F2E82011D
:100B100033FC1BC0822D90E088169906B0F4B60114
:100B200080E290E00E94BB062A94F4CFF50137FCE6
:100B3000859137FE81915F01B60190E00E94BB066E
:100B400021102A9421E0821A91088114910471F7EE
:100B5000E8C0843611F0893641F5F80137FE07C048
:100B600060817181828193810C5F1F4F08C0608119
:100B70007181072E000C880B990B0E5F1F4FF32D10
:100B8000FF763F2E97FF09C09095809570956195EF
:100B90007F4F8F4F9F4FF0683F2E2AE030E0A30138
:100BA0000E94F706882E861845C0853731F4232D1C
:100BB0002F7EB22E2AE030E025C0932D997FB92EEA
:100BC0008F36C1F018F4883579F0B5C0803719F048
:100BD000883721F0B0C0E92FE061BE2EB4FE0DC011
:100BE000FB2DF460BF2E09C034FE0AC0292F2660F9
:100BF000B22E06C028E030E005C020E130E002C09F
:100C000020E132E0F801B7FE07C060817181828186
:100C100093810C5F1F4F06C06081718180E090E07E
:100C20000E5F1F4FA3010E94F706882E8618FB2D2A
:100C3000FF773F2E36FE0DC0232D2E7FA22E891466
:100C400058F434FE0BC032FC09C0832D8E7EA82ED2
:100C500005C0B82CA32C03C0B82C01C0B92CA4FE2D
:100C60000FC0FE01E80DF11D8081803321F49A2D23
:100C7000997EA92E09C0A2FE06C0B394B39404C005
:100C80008A2D867809F0B394A3FC11C0A0FE06C09B
:100C9000B21488F4280C922C9B180EC0B21460F485
:100CA000B60180E290E00E94BB06B394F7CFB21485
:100CB00018F42B1802C0982C212CA4FE10C0B601E9
:100CC00080E390E00E94BB06A2FE17C0A1FC03C017
:100CD00088E790E002C088E590E0B6010CC08A2D5C
:100CE000867859F0A1FE02C08BE201C080E2A7FC29
:100CF0008DE2B60190E00E94BB06891438F4B6017B
:100D000080E390E00E94BB069A94F7CF8A94F301A7
:100D1000E80DF11D8081B60190E00E94BB068110B4
:100D2000F5CF222009F442CEB60180E290E00E9485
:100D3000BB062A94F6CFF6018681978102C08FEF19
:100D40009FEF2B96E2E10C947107FC010590615036
:100D500070400110D8F7809590958E0F9F1F0895D1
:100D6000FC016150704001900110D8F7809590957A
:100D70008E0F9F1F08950F931F93CF93DF93FB0157
:100D8000238121FD03C08FEF9FEF2CC022FF16C0EF
:100D900046815781248135814217530744F4A0814D
:100DA000B1819D012F5F3F4F318320838C9326813A
:100DB00037812F5F3F4F3783268314C08B01EC01AF
:100DC000FB010084F185E02D0995892BE1F6D8011E
:100DD00016968D919C911797019617969C938E93DA
:100DE0001697CE01DF91CF911F910F910895FA01CF
:100DF000AA27283051F1203181F1E8946F936E7F5A
:100E00006E5F7F4F8F4F9F4FAF4FB1E03ED0B4E04A
:100E10003CD0670F781F891F9A1FA11D680F791F8B
:100E20008A1F911DA11D6A0F711D811D911DA11D9C
:100E300020D009F468943F912AE0269F11243019AC
:100E4000305D3193DEF6CF010895462F4770405D47
:100E50004193B3E00FD0C9F7F6CF462F4F70405DF6
:100E60004A3318F0495D31FD4052419302D0A9F751
:100E7000EACFB4E0A6959795879577956795BA954B
:100E8000C9F700976105710508959B01AC010A2E11
:100E900006945795479537952795BA95C9F7620FE8
:100EA000731F841F951FA01D08952F923F924F928C
:100EB0005F926F927F928F929F92AF92BF92CF92EA
:100EC000DF92EF92FF920F931F93CF93DF93CDB7F3
:100ED000DEB7CA1BDB0B0FB6F894DEBF0FBECDBF6B
:100EE00009942A88398848885F846E847D848C843C
:100EF0009B84AA84B984C884DF80EE80FD800C8145
:100F00001B81AA81B981CE0FD11D0FB6F894DEBF27
:0C0F10000FBECDBFED010895F894FFCF97
:0C0F1C00F6C225643A25643A2564000002
:00000001FF
